:020000040800F2
:10000000100500200D760008D3750008D57500088E
:10001000D7750008D9750008DB75000800000000DE
:10002000000000000000000000000000DD75000876
:10003000DF75000800000000E1750008E3750008A6
:1000400025760008297600082D760008317600080C
:1000500035760008397600083D76000841760008BC
:1000600045760008497600084D760008517600086C
:1000700055760008597600085D760008617600081C
:1000800065760008697600086D76000871760008CC
:1000900075760008797600087D760008817600087C
:1000A00085760008897600088D760008917600082C
:1000B00095760008997600089D760008A1760008DC
:1000C000A5760008A9760008AD760008B17600088C
:1000D000B5760008B9760008BD760008C17600083C
:1000E000C5760008C9760008CD760008D1760008EC
:1000F000D5760008D9760008DD760008E17600089C
:10010000E5760008E9760008ED760008F17600084B
:10011000F5760008F9760008FD76000801770008FA
:1001200005770008097700080D77000811770008A7
:1001300000000000000000000000000000000000BF
:1001400000000000000000000000000000000000AF
:10015000000000000000000000000000000000009F
:10016000000000000000000000000000000000008F
:10017000000000000000000000000000000000007F
:10018000000000000000000000000000000000006F
:10019000000000000000000000000000000000005F
:1001A0000000003C00003C00003C00003C00003C23
:1001B00000003C00003C00003C00003C00003C0013
:1001C000003C00003C00003C00003C00000000003F
:1001D0000000003C00007E00003C00000000000029
:1001E000000000000000000000000000000000000F
:1001F00000000000000000000000000000000000FF
:10020000000003C3E003C3E003C3C003C3C003C3D0
:10021000C003C3C003C1C000000000000000000014
:1002200000000000000000000000000000000000CE
:1002300000000000000000000000000000000000BE
:1002400000000000000000000000000000000000AE
:10025000000000000000000000000000000000009E
:10026000000000000000000001E0E001C0E001C06B
:10027000E001C0E03FFFFE3FFFFE03C1C00381C0BD
:100280000381C00381C07FFFFC7FFFFC07838007E1
:100290000380070380070380070780000000000039
:1002A000000000000000000000000000000000004E
:1002B000000000000000000000000000000000003E
:1002C0000700000F00000E0001FFF007FFF01F0EF7
:1002D000001E1E001E1C001E1C000FDC0007FC0080
:1002E00000FF80003FF00038F800387800783C00CC
:1002F00070783071F83FFFE01FFF0000E00000E081
:100300000000E0000000000000000000000000000D
:1003100000000000000000000000000000000000DD
:1003200000000F800F3FE01E78703C70707070709E
:10033000E07071C03FE3801FC700000E00001C008A
:1003400000780000F0F001E7FC03CF0E078E0E0FDF
:100350000E0E1E0E0E3C07BC7003F80000000000DD
:10036000000000000000000000000000000000008D
:10037000000000000000000000000000000000007D
:10038000000000000001FF0007FF800F03C00F0303
:10039000C00F03C00F0780079F0003FE0003F0009B
:1003A0000FF83C3E7C3C3C1F3C780FF87807F87C0B
:1003B00001F03E03F81FFFFC07FE1F0000000000D5
:1003C000000000000000000000000000000000002D
:1003D000000000000000000000000000000000001D
:1003E0000000003E00003C00003C00003C00003CDF
:1003F00000003C00003C0000000000000000000085
:1004000000000000000000000000000000000000EC
:1004100000000000000000000000000000000000DC
:1004200000000000000000000000000000000000CC
:1004300000000000000000000000000000000000BC
:1004400000800001C0000780000F00001E00003C7B
:100450000000780000F00000E00001E00001E00092
:1004600001C00003C00003C00001C00001E00001A2
:10047000E00000F00000F000007800003C00001EEA
:1004800000000F000007C00001C0000000000000D5
:10049000000000000000000000000000000000005C
:1004A000000003C00001E00000F000007C00003EFE
:1004B00000001E00000F000007800007800003807E
:1004C0000003C00003C00003C00003C0000380009D
:1004D0000780000780000F00001E00003C0000782D
:1004E0000000F00001E000038000000000000000B8
:1004F00000000000000000000000000000000000FC
:100500000000001C00001C000018000F18F007DBA2
:10051000E0007F0000FF0007DBE00E18700018000D
:10052000001C00001C000000000000000000000093
:1005300000000000000000000000000000000000BB
:1005400000000000000000000000000000000000AB
:10055000000000000000000000000000000000009B
:10056000000000000000000000000000000000008B
:1005700000003C00003C00003C00003C00003C004F
:10058000003C003FFFFC3FFFFC003C00003C000043
:100590003C00003C00003C000000000000000000A7
:1005A000000000000000000000000000000000004B
:1005B000000000000000000000000000000000003B
:1005C000000000000000000000000000000000002B
:1005D000000000000000000000000000000000001B
:1005E000000000000000000000000000000000000B
:1005F0007C00007E00007E00003E00001E00003CEB
:100600000000F80007E00004000000000000000007
:1006100000000000000000000000000000000000DA
:1006200000000000000000000000000000000000CA
:1006300000000000000000000000000000000000BA
:1006400000000003FFE003FFE000000000000000E6
:10065000000000000000000000000000000000009A
:10066000000000000000000000000000000000008A
:10067000000000000000000000000000000000007A
:10068000000000000000000000000000000000006A
:10069000000000000000000000000000000000005A
:1006A000000000000000000000000000000000004A
:1006B0007C0000FE0000FE00007E00000000000044
:1006C000000000000000000000000000000000002A
:1006D000000000000000000000000000000000001A
:1006E00000000000780000F00000E00001E00003DE
:1006F000C0000380000780000F00000E00001E00F5
:10070000003C0000380000700000F00000E0000134
:10071000C00003C0000780000700000F00001E009B
:10072000001C0000000000000000000000000000AD
:1007300000000000000000000000000000000000B9
:10074000000000000000000001FFC007FFE00F00F4
:10075000F01E00781E003C3C00FC3C07FC3C1FBC2B
:100760003C7C1C3DF03C3FC03C3F003C1E00381E22
:1007700000780F80F007FFE001FF8000000000001C
:100780000000000000000000000000000000000069
:100790000000000000000000000000000000000059
:1007A0000000000000000000007E0003FE001FDECD
:1007B000000E1E00001E00001E00001E00001E0095
:1007C000001E00001E00001E00001E00001E000093
:1007D0001E00001E000FFFF80FFFF80000000000D1
:1007E0000000000000000000000000000000000009
:1007F00000000000000000000000000000000000F9
:10080000000000000000000003FF800FFFE00E0169
:10081000F00000F00000F00000F00000F00001E047
:100820000003C0000F80003E00007C0001F00003C8
:10083000C0000F80001FFFFC1FFFFC000000000035
:1008400000000000000000000000000000000000A8
:100850000000000000000000000000000000000098
:1008600000000000000000000FFF800FFFE000010B
:10087000E00000F00000F00001E00003C001FF0014
:1008800001FFC00003F0000078000078000078004D
:1008900000780001F00FFFC00FFF00000000000013
:1008A0000000000000000000000000000000000048
:1008B0000000000000000000000000000000000038
:1008C0000000000000000000000FC0001FC0003F3B
:1008D000C0007BC000F3C001E3C003C3C00783C0F6
:1008E0000F03C01C03C03803C07FFFFE7FFFFE0064
:1008F00003C00003C00003C00003C00000000000EC
:1009000000000000000000000000000000000000E7
:1009100000000000000000000000000000000000D7
:1009200000000000000000000FFFE00FFFE00F00DC
:10093000000F00000F00000F00000F00000FFF80ED
:100940000FFFE00000F00000780000780000780061
:1009500000F00003E00FFFC00FFE000000000000E9
:100960000000000000000000000000000000000087
:100970000000000000000000000000000000000077
:100980000000000000000000003FF001FFF003E065
:10099000000780000F00001E00001E1F001FFFE068
:1009A0001FC1F81E00781E003C1E003C1E003C0FBC
:1009B00000780F80F807FFE001FF800000000000D2
:1009C0000000000000000000000000000000000027
:1009D0000000000000000000000000000000000017
:1009E00000000000000000001FFFFC1FFFFC0000D3
:1009F000780000F00000E00001E00003C000078084
:100A0000000F00000F00001E00003C0000780000F6
:100A1000F00001F00001E00003C000000000000051
:100A200000000000000000000000000000000000C6
:100A300000000000000000000000000000000000B6
:100A4000000000000000000003FFE00FE3F00F00D3
:100A5000781E00781E00780F00F007E3E001FF80A9
:100A600001FF8007E7E00F00F81E00781E003C1E23
:100A7000007C1F00F80FFFF003FFC0000000000023
:100A80000000000000000000000000000000000066
:100A90000000000000000000000000000000000056
:100AA000000000000000000003FF800FC7E01E00F0
:100AB000F01E00783C00783C00783C00381E00783E
:100AC0000FEFF807FFB80000780000780000F00092
:100AD00001E0000FC00FFF000FF000000000000059
:100AE0000000000000000000000000000000000006
:100AF00000000000000000000000000000000000F6
:100B000000000000000000000000000000000000E5
:100B100000000000007E00007E00007E0000180043
:100B200000000000000000000000000000000000C5
:100B30003C00007E00007E00003E0000000000003F
:100B400000000000000000000000000000000000A5
:100B50000000000000000000000000000000000095
:100B60000000000000000000000000000000000085
:100B700000000000007E00007E00007E00001800E3
:100B80000000000000000000000000000000000065
:100B90003E00007E00007F00001F00001E00001EBF
:100BA0000000FC0007F0000400000000000000004E
:100BB0000000000000000000000000000000000035
:100BC0000000000000000000000000000000000025
:100BD000400001E00007C0001F00007E0001F80097
:100BE00003E0000F80000F800003E00000F8000029
:100BF0003E00000F800003E00000E0000000000065
:100C000000000000000000000000000000000000E4
:100C100000000000000000000000000000000000D4
:100C200000000000000000000000000000000000C4
:100C3000000000000000000000000000001FFFF89E
:100C40000000000000000000001FFFF81FFFF80078
:100C50000000000000000000000000000000000094
:100C60000000000000000000000000000000000084
:100C70000000000000000000000000000000000074
:100C80000000000000000000000000000000000064
:100C90000007800003E00000F800003E00000F8025
:100CA0000003E00000F80001F00007C0001F000092
:100CB0007C0001F00007C0000300000000000000FD
:100CC0000000000000000000000000000000000024
:100CD0000000000000000000000000000000000014
:100CE000000001C00001FE00007F800007C000017D
:100CF000E00000F00000F00001F00003E0007FC021
:100D0000007E000070000070000070000000000015
:100D1000000000F80000F80000F8000000000000EB
:100D200000000000000000000000000000000000C3
:100D300000000000000000000000000000000000B3
:100D40000000001F8000FFF003C07807801C0E0029
:100D50000E1C000E3C000F383FC778FFC770E3C77A
:100D600071C3C7F3C387E3C387E3878EE3878EE34B
:100D7000CF8EE3FFFC71F9F07000007000003800C6
:100D8000003C00000F01C007FFC000000000000091
:100D90000000000000000000000000000000000053
:100DA0000000000000000000007E00007F0000FF47
:100DB0000000E78001E78003C3C003C3C00781E0F0
:100DC0000781E00F00F00F00F81FFFF81FFFFC3C49
:100DD000003C3C001E78001EF0000F0000000000E8
:100DE0000000000000000000000000000000000003
:100DF00000000000000000000000000000000000F3
:100E000000000000000000001FFFC01FFFF01E00D8
:100E1000F01E00781E00781E00F01E01F01FFFC0BB
:100E20001FFFE01E01F81E00781E003C1E003C1E45
:100E300000781E00F81FFFE01FFF00000000000008
:100E400000000000000000000000000000000000A2
:100E50000000000000000000000000000000000092
:100E6000000000000000000000FFF803FFF807C0CA
:100E7000000F00001E00001E00003C00003C0000AF
:100E80003C00003C00003C00003E00001E00000F43
:100E900000000FC00803FFF800FFF800000000008A
:100EA0000000000000000000000000000000000042
:100EB0000000000000000000000000000000000032
:100EC00000000000000000003FFF003FFFE03C0189
:100ED000F03C00783C003C3C003C3C003C3C001EAC
:100EE0003C001E3C001E3C003C3C003C3C00783C6E
:100EF00000F83C07E03FFFC03FFC0000000000009E
:100F000000000000000000000000000000000000E1
:100F100000000000000000000000000000000000D1
:100F200000000000000000000FFFF00FFFF00F00B6
:100F3000000F00000F00000F00000F00000FFFF077
:100F40000FFFF00F00000F00000F00000F00000F58
:100F500000000F00000FFFF00FFFF0000000000086
:100F60000000000000000000000000000000000081
:100F70000000000000000000000000000000000071
:100F800000000000000000000FFFF00FFFF00F0056
:100F9000000F00000F00000F00000F00000FFFF017
:100FA0000FFFF00F00000F00000F00000F00000FF8
:100FB00000000F00000F00000F0000000000000004
:100FC0000000000000000000000000000000000021
:100FD0000000000000000000000000000000000011
:100FE000000000000000000000FFFC03FFFC0FC039
:100FF000041F00001E00003C00003C0000780FFCB5
:10100000780FFC78003C3C003C3C003C3E003C1F20
:10101000003C0FC03C03FFFC00FFF8000000000094
:1010200000000000000000000000000000000000C0
:1010300000000000000000000000000000000000B0
:1010400000000000000000003C003C3C003C3C0074
:101050003C3C003C3C003C3C003C3C003C3FFFFC3A
:101060003FFFFC3C003C3C003C3C003C3C003C3C2A
:10107000003C3C003C3C003C3C003C0000000000CC
:101080000000000000000000000000000000000060
:101090000000000000000000000000000000000050
:1010A00000000000000000000FFFF80FFFF8003CF8
:1010B00000003C00003C00003C00003C00003C0004
:1010C000003C00003C00003C00003C00003C0000F4
:1010D0003C00003C000FFFF80FFFF800000000008C
:1010E0000000000000000000000000000000000000
:1010F00000000000000000000000000000000000F0
:1011000000000000000000000FFFE00FFFE0000102
:10111000E00001E00001E00001E00001E00001E08A
:101120000001E00001E00001E00001E00001E0005A
:1011300003C00C07C00FFF8007FE00000000000086
:10114000000000000000000000000000000000009F
:10115000000000000000000000000000000000008F
:1011600000000000000000001E00781E01F01E03B9
:10117000C01E07801E1F001E3C001E78001EF000CF
:101180001FF0001EF8001E3C001E1E001E0F801ED9
:1011900007C01E01E01E00F81E007C0000000000D9
:1011A000000000000000000000000000000000003F
:1011B000000000000000000000000000000000002F
:1011C000000000000000000007800007800007808A
:1011D000000780000780000780000780000780006C
:1011E0000780000780000780000780000780000755
:1011F000800007800007FFF807FFF80000000000EC
:1012000000000000000000000000000000000000DE
:1012100000000000000000000000000000000000CE
:1012200000000000000000003E007C3F00FC3F8109
:10123000DC3B81DC3BC39C39C39C38E71C38EF1C8A
:10124000387E1C387C1E383C1E78001E78001E78C4
:10125000001E78001E78001E78001E0000000000AE
:10126000000000000000000000000000000000007E
:10127000000000000000000000000000000000006E
:1012800000000000000000001F003C1F803C1FC049
:101290003C1DC03C1DE03C1CF03C1C783C1C783CD8
:1012A0001C3C3C1C1E3C1C0F3C1C0F3C1C07BC1C6B
:1012B00003FC1C01FC1C00FC1C00FC0000000000E6
:1012C000000000000000000000000000000000001E
:1012D000000000000000000000000000000000000E
:1012E000000000000000000001FFC007FFF00F0039
:1012F000F81E007C3C003C3C001E78001E78001E5E
:1013000078001E78001E78001E3C003C3C003C1E0D
:1013100000781F00F007FFE001FF800000000000E0
:1013200000000000000000000000000000000000BD
:1013300000000000000000000000000000000000AD
:1013400000000000000000001FFF801FFFF01E00D3
:10135000F81E007C1E003C1E003C1E003C1E007857
:101360001E03F01FFFC01FFE001E00001E00001E17
:1013700000001E00001E00001E0000000000000013
:10138000000000000000000000000000000000005D
:10139000000000000000000000000000000000004D
:1013A000000000000000000001FFC007FFF00F0078
:1013B000F81E007C3C003C3C001E78001E78001E9D
:1013C00078001E78001E78001E3C003C3C003C1E4D
:1013D00000781F80F007FFE001FF80003C00003C28
:1013E00000001F06000FFF0001F8000000000000D1
:1013F00000000000000000000000000000000000ED
:1014000000000000000000000FFF800FFFE00E0151
:10141000F00E00F00E00F00E00F00E01F00FFFC015
:101420000FFF000E1F000E07800E03C00E01E00E1E
:1014300000F00E00F80E00780E003C0000000000E6
:10144000000000000000000000000000000000009C
:10145000000000000000000000000000000000008C
:10146000000000000000000003FFF00FFFF01F006D
:10147000001E00001E00001F00000FC00007FC003F
:1014800000FF80000FF00001F800007800007800F5
:1014900000782000F83FFFE03FFF800000000000E0
:1014A000000000000000000000000000000000003C
:1014B000000000000000000000000000000000002C
:1014C00000000000000000003FFFFC3FFFFC003C6C
:1014D00000003C00003C00003C00003C00003C00E0
:1014E000003C00003C00003C00003C00003C0000D0
:1014F0003C00003C00003C00003C000000000000FC
:1015000000000000000000000000000000000000DB
:1015100000000000000000000000000000000000CB
:1015200000000000000000003C003C3C003C3C008F
:101530003C3C003C3C003C3C003C3C003C3C003C17
:101540003C003C3C003C3C003C3C003C3C003C1E25
:1015500000781F00F80FFFE003FF8000000000008C
:10156000000000000000000000000000000000007B
:10157000000000000000000000000000000000006B
:101580000000000000000000F8000F78001E3C0082
:101590001E3C003C1E00381E00780F00700F00F04B
:1015A0000781E00781E003C3C003E3C001E78000D7
:1015B000F78000FF00007E00007E000000000000B9
:1015C000000000000000000000000000000000001B
:1015D000000000000000000000000000000000000B
:1015E000000000000000000078000E78000E780077
:1015F0000E78001E38001E38001E383C1C383C1C7B
:10160000387E1C387F1C3CE71C3CE79C3DC39C1D7E
:10161000C3DC1F81DC1F80F81F00F8000000000001
:1016200000000000000000000000000000000000BA
:1016300000000000000000000000000000000000AA
:1016400000000000000000003C003C1E00780F007D
:10165000F00781E003C3C001E78000FF00007E00C7
:10166000007E0000FF0001FF8003E7C007C3E00F1A
:1016700081F01F00F83E007C7C003E00000000006E
:10168000000000000000000000000000000000005A
:10169000000000000000000000000000000000004A
:1016A000000000000000000078001F3C003E1E000B
:1016B0007C1F00780F80F007C1E003E3C001E780E2
:1016C00000FF00007E00003C00003C00003C0000E9
:1016D0003C00003C00003C00003C0000000000001A
:1016E00000000000000000000000000000000000FA
:1016F00000000000000000000000000000000000EA
:1017000000000000000000001FFFFC1FFFFC0000A5
:10171000F80001E00003C0000780000F00001E0079
:10172000003C0000780000F00003E00007C0000F5C
:1017300080001F00003FFFFC3FFFFC000000000096
:101740000000000000000000000000000000000099
:101750000000000000000000000000000000000089
:10176000000001FFC001FFC001E00001E00001E056
:101770000001E00001E00001E00001E00001E00004
:1017800001E00001E00001E00001E00001E00001F3
:10179000E00001E00001E00001E00001E00001E004
:1017A0000001E00001E00001FFC0000000000000B7
:1017B0000000000000000000000000000000000029
:1017C00000000E00000F000007000003800003C0AF
:1017D0000001E00000E00000F000007800003800A8
:1017E000003C00001E00000E00000F0000078000FB
:1017F00003800001C00001E00000E0000070000074
:101800007800003C00000000000000000000000024
:1018100000000000000000000000000000000000C8
:10182000000003FF8003FF8000078000078000079F
:101830008000078000078000078000078000078085
:1018400000078000078000078000078000078000F5
:1018500007800007800007800007800007800007DE
:101860008000078000078003FF8000000000000068
:101870000000000000000000000000000000000068
:101880000000000000000000003C00007E0000E7B7
:101890000001C3800381C00700E00E00F01E007845
:1018A0000000000000000000000000000000000038
:1018B0000000000000000000000000000000000028
:1018C0000000000000000000000000000000000018
:1018D0000000000000000000000000000000000008
:1018E00000000000000000000000000000000000F8
:1018F00000000000000000000000000000000000E8
:1019000000000000000000000000000000000000D7
:1019100000000000000000000000000000000000C7
:1019200000000000FFFFFFFFFFFF000000000000BD
:1019300000000000000000000000000000000000A7
:1019400000000F800003E00000F800003C000000F1
:101950000000000000000000000000000000000087
:101960000000000000000000000000000000000077
:101970000000000000000000000000000000000067
:101980000000000000000000000000000000000057
:101990000000000000000000000000000000000047
:1019A0000000000000000000000000000000000037
:1019B0000000000007FFC007E7F00000F00000781B
:1019C00000007800FFF807FFF80F00781E00781E6F
:1019D00000781E03F80FFFF807FC780000000000F5
:1019E00000000000000000000000000000000000F7
:1019F00000000000000000000000000000000000E7
:101A000000001E00001E00001E00001E00001E0040
:101A1000001E00001E7FE01EFFF01FC0781F007830
:101A20001E003C1E003C1E003C1E003C1E00381EDA
:101A300000781E00F01FFFE007FF0000000000001C
:101A40000000000000000000000000000000000096
:101A50000000000000000000000000000000000086
:101A60000000000000000000000000000000000076
:101A70000000000000FFF003FFF007C0000F80002F
:101A80000F00001E00001E00001E00000F00000FCF
:101A9000800007C00003FFF000FFF000000000001E
:101AA0000000000000000000000000000000000036
:101AB0000000000000000000000000000000000026
:101AC0000000000078000078000078000078000036
:101AD0007800007801FFF807FFF80F00781E007803
:101AE0001E00783C00783C00783C00781C00781E92
:101AF00001F81F03F80FFF7803FC780000000000D6
:101B000000000000000000000000000000000000D5
:101B100000000000000000000000000000000000C5
:101B200000000000000000000000000000000000B5
:101B30000000000001FFC007E3F00F00F81E00786E
:101B40001E003C1FFFFC1FFFFC1C00001E00001EAF
:101B500000000F800007FFF801FFF8000000000000
:101B60000000000000000000000000000000000075
:101B70000000000000000000000000000000000065
:101B800000000003FC001FFE003E0000780000780B
:101B9000000070000070000070003FFFFC3FFFFC81
:101BA0000070000070000070000070000070000005
:101BB0007000007000007000007000000000000065
:101BC0000000000000000000000000000000000015
:101BD0000000000000000000000000000000000005
:101BE00000000000000000000000000000000000F5
:101BF0000000000003FFFC07C3FC0F00F01E00F014
:101C00001E00F00F00F00F83E00FFFC01E7C001CD1
:101C100000001F00000FFFF00FFFFC1E003C3C0007
:101C20003C3C003C1F81F80FFFE000380000000042
:101C300000000000000000000000000000000000A4
:101C400000001E00001E00001E00001E00001E00FE
:101C5000001E00001E7FE01EFFF01FC0F01F007876
:101C60001E00781E00781E00781E00781E00781E68
:101C700000781E00781E00781E007800000000002A
:101C80000000000000000000000000000000000054
:101C90000000000000000000000000000000000044
:101CA0000000003C00007E00007E00003C000000C0
:101CB000000000000FFE000FFE00001E00001E00CE
:101CC000001E00001E00001E00001E00001E00007E
:101CD0001E00001E000FFFF80FFFF80000000000BC
:101CE00000000000000000000000000000000000F4
:101CF00000000000000000000000000000000000E4
:101D000000000003800007E00007E00003800000FF
:101D1000000000000FFFC00FFFC00003C00003C0A1
:101D20000003C00003C00003C00003C00003C000E4
:101D300003C00003C00003C00003C00003C00003D1
:101D4000C00007801E3F001FFE0001C00000000011
:101D50000000000000000000000000000000000083
:101D600000000F00000F00000F00000F00000F0028
:101D7000000F00000F00F80F01E00F07C00F1F0059
:101D80000F3C000FF8000FF8000F3E000F1F000F70
:101D900007C00F03E00F00F80F007C0000000000F8
:101DA0000000000000000000000000000000000033
:101DB0000000000000000000000000000000000023
:101DC00000000FFE000FFE00001E00001E00001E9F
:101DD00000001E00001E00001E00001E00001E006D
:101DE000001E00001E00001E00001E00001E00005D
:101DF0001E00001E000FFFF80FFFF800000000009B
:101E000000000000000000000000000000000000D2
:101E100000000000000000000000000000000000C2
:101E200000000000000000000000000000000000B2
:101E30000000000039F9F83BBBBC3E3E1C3C3E1C98
:101E4000383C1C383C1C383C1C383C1C383C1C388A
:101E50003C1C383C1C383C1C383C1C00000000007A
:101E60000000000000000000000000000000000072
:101E70000000000000000000000000000000000062
:101E80000000000000000000000000000000000052
:101E9000000000001E7FE01EFFF01FC0F01F007852
:101EA0001E00781E00781E00781E00781E00781E26
:101EB00000781E00781E00781E00780000000000E8
:101EC0000000000000000000000000000000000012
:101ED0000000000000000000000000000000000002
:101EE00000000000000000000000000000000000F2
:101EF0000000000001FFC007E7F00F00F81E003CE3
:101F00003C003C3C003C3C003C3C003C3C003C1E5B
:101F100000781F00F007FFE001FF800000000000D4
:101F200000000000000000000000000000000000B1
:101F300000000000000000000000000000000000A1
:101F40000000000000000000000000000000000091
:101F5000000000001E7FE01EFFF01FC0781F007809
:101F60001E003C1E003C1E003C1E003C1E00381E95
:101F700000781E00F01FFFE01FFF001E00001E0083
:101F8000001E00001E00001E0000000000000000F7
:101F90000000000000000000000000000000000041
:101FA0000000000000000000000000000000000031
:101FB0000000000001FFF807F7F80F00781E007816
:101FC0001E00783C00783C00783C00781C00781EAD
:101FD00001F81F03F80FFF7803FC78000078000079
:101FE0007800007800007800007800000000000011
:101FF00000000000000000000000000000000000E1
:1020000000000000000000000000000000000000D0
:10201000000000000F1FF00F7FF80FE03C0F803C26
:102020000F003C0F00000F00000F00000F00000F1A
:1020300000000F00000F00000F0000000000000073
:102040000000000000000000000000000000000090
:102050000000000000000000000000000000000080
:102060000000000000000000000000000000000070
:102070000000000001FFE007E1E00F00000F00009A
:1020800007800003FC0000FFC0000FF00000F0001C
:1020900000780000F00FFFE00FFF8000000000005C
:1020A0000000000000000000000000000000000030
:1020B0000000000000000000000000000000000020
:1020C000000000000000000001E00001E00001E06D
:1020D0000001E0007FFFF87FFFF801E00001E00071
:1020E00001E00001E00001E00001E00001E000018A
:1020F000E00000F000007FF8003FF8000000000062
:1021000000000000000000000000000000000000CF
:1021100000000000000000000000000000000000BF
:1021200000000000000000000000000000000000AF
:10213000000000001E00781E00781E00781E007847
:102140001E00781E00781E00781E00781E00780E93
:1021500000F80F03F807FF7803FC78000000000088
:10216000000000000000000000000000000000006F
:10217000000000000000000000000000000000005F
:10218000000000000000000000000000000000004F
:10219000000000003C003C1E007C1E00780F00F098
:1021A0000F80F00781E003C3C003C3C001E78000D4
:1021B000E70000FF00007E00003C0000000000007F
:1021C000000000000000000000000000000000000F
:1021D00000000000000000000000000000000000FF
:1021E00000000000000000000000000000000000EF
:1021F0000000000078000E78001E78001E383C1E9B
:10220000383C1C3C7E1C3C7E3C1CE73C1CE7B81D5B
:10221000C3B81FC3F80F81F80F81F0000000000061
:1022200000000000000000000000000000000000AE
:10223000000000000000000000000000000000009E
:10224000000000000000000000000000000000008E
:10225000000000001F007C0F80F007C1E003E3C016
:1022600000F780007F00003E0000FF0001E78003D0
:10227000C3C00781F01F00F83E007C000000000092
:10228000000000000000000000000000000000004E
:10229000000000000000000000000000000000003E
:1022A000000000000000000000000000000000002E
:1022B000000000003C003C1E003C1E00780F00F0B7
:1022C0000780F00781E003C1C003C3C001E78000BD
:1022D000F78000FF00007E00003E00003C00007818
:1022E0000001F0007FE0007F80000000000000009F
:1022F00000000000000000000000000000000000DE
:1023000000000000000000000000000000000000CD
:10231000000000000FFFF00FFFF00001E00007C019
:10232000000F80001E00003C0000F80001E00003E8
:10233000C0000780000FFFF80FFFF800000000004A
:10234000000000000000000000000000000000008D
:10235000000000000000000000000000000000007D
:1023600000000007E0001FE0003C000038000038DB
:102370000000780000780000780000780000780005
:102380001FF0001F800001F00000780000780000BE
:1023900078000078000078000078000078000038AD
:1023A00000003C00001F80000FE000000000000063
:1023B000000000000000000000003C00003C0000A5
:1023C0003C00003C00003C00003C00003C00003CA5
:1023D00000003C00003C00003C00003C00003C00D1
:1023E000003C00003C00003C00003C00003C0000C1
:1023F0003C00003C00003C00003C00003C00003C75
:1024000000003C00003C00003C0000000000000018
:1024100000000000000000000000000000000000BC
:10242000000007E00007F800003C00001E00001E4E
:1024300000001E00001E00001E00001E00000E0016
:10244000000FF80001F8000F80000E00001E0000D1
:102450001E00001E00001E00001E00001E00001EC8
:1024600000003C0000FC0007F0000000000000003D
:10247000000000000000000000000000000000005C
:10248000000000000000000000000000000000004C
:102490000000000000000000000000000007C00075
:1024A0001FF01E3C7C1E381FFC7807F8000000005F
:1024B000000000000000000000000000000000001C
:1024C000000000000000000000000000000000000C
:1024D00000000000000000000000000000000000FC
:1024E00000000000000000000000000000000000EC
:1024F00000000000000000000000000000000000DC
:102500000000000000000000000003800180018046
:102510000180018001800180018001800180000034
:10252000000003C003C00000000000000000000025
:10253000000000000000000000000E700E700E7021
:102540000C3000000000000000000000000000004F
:10255000000000000000000000000000000000007B
:10256000000000000000000000000000061806380F
:1025700006307FFE0C300C300C300C307FFE0C60CF
:102580001C601860186000000000000000000000DF
:10259000000000000000000000C000C00FF83CC8B0
:1025A00031C031803D801F8003F001F8031C030C13
:1025B000031C3FF83FE00700060000000000000099
:1025C00000000000000000001C007E0E630C631879
:1025D00063307E6000C001800300077C0EE61CC6ED
:1025E00018C630C6607C000000000000000000003B
:1025F000000000000000000000000FE01CF0387038
:1026000038701C601FC00F003F8C71CC60EC607C88
:1026100070383CFC1FCE00000000000000000000ED
:102620000000000000000000000003C001800180E5
:102630000180000000000000000000000000000019
:10264000000000000000000000000000000000008A
:102650000000000000000000003000E001C0018028
:1026600003000700060006000E000E000E000E001C
:10267000060007000300038001C000E000300000F6
:1026800000000000000000000C0006000380018034
:1026900001C000E000600060007000700070006029
:1026A000006000E000C00180038006000C00000014
:1026B00000000000000000000000018011881DB82B
:1026C00003C007E03DBC018801800000000000005D
:1026D00000000000000000000000000000000000FA
:1026E00000000000000000000000000000000000EA
:1026F000018001800180018001807FFE01800180D6
:1027000001800180000000000000000000000000C7
:1027100000000000000000000000000000000000B9
:1027200000000000000000000000000000000000A9
:1027300003C003C001C001C003801F0000000000EF
:102740000000000000000000000000000000000089
:10275000000000000000000000000FF0000000007A
:102760000000000000000000000000000000000069
:102770000000000000000000000000000000000059
:102780000000000000000000000000000000000049
:1027900003C003C003C000000000000000000000F0
:1027A00000000000000000000000001800380030A9
:1027B000006000E000C001C00180030003000600CB
:1027C0000E000C001C00180030000000000000008B
:1027D0000000000000000000000001800FF01C3825
:1027E000381C301C707E70EE738E7E0E7C0C300CAC
:1027F000381C1E780FE00000000000000000000000
:1028000000000000000000000000000007C01FC022
:1028100039C001C001C001C001C001C001C001C078
:1028200001C03FFC3FFC0000000000000000000071
:102830000000000000000000000003801FF01838B6
:102840000038001800380038007001E003800700ED
:102850001C003FFC3FFC00000000000000000000E6
:102860000000000000000000000007801FF000389A
:1028700000380038003007E007F00038001C001C6A
:10288000001820F83FE000000000000000000000F9
:1028900000000000000000000000000000F001B097
:1028A000033007300E301C30383070307FFE7FFE32
:1028B0000030003000300000000000000000000088
:1028C0000000000000000000000000001FF81800D9
:1028D0001800180018001FE000F8001C001C001C65
:1028E000003800F01FC000000000000000000000E1
:1028F00000000000000000000000000003F80F00CE
:102900001C001800300037F83C3C300C300C380C00
:10291000381C1E380FF0000000000000000000000E
:102920000000000000000000000000003FFC001C50
:10293000001800380070006000E001C001800380D2
:10294000070006000E00000000000000000000006C
:102950000000000000000000000003C01FF8381C49
:10296000381C381C1C380FF007F01C78381C300C51
:10297000381C3C380FF00000000000000000000090
:102980000000000000000000000003801FF0383845
:10299000301C701C700C380C1FFC0FCC001C001875
:1029A00000701FE01F800000000000000000000019
:1029B0000000000000000000000000000000000017
:1029C000000003C003C00180000000000000000000
:1029D00003C003C003C000000000000000000000AE
:1029E00000000000000000000000000000000000E7
:1029F000000003C003C001800000000000000000D0
:102A000003C003C001C001C003800F00000000002C
:102A100000000000000000000000000000000000B6
:102A2000003800F001C007001E0038000E000780CB
:102A300001C0007000300000000000000000000035
:102A40000000000000000000000000000000000086
:102A50000000000000003FFC000000003FFC3FFCC5
:102A60000000000000000000000000000000000066
:102A70000000000000000000000000000000000056
:102A80001C000F00038001E00078001C007001E0D2
:102A900003800E000C000000000000000000000099
:102AA000000000000000000000000FC000F000382F
:102AB00000380038003803F00380030003000000F2
:102AC00000000780078000000000000000000000F8
:102AD000000000000000000000E007F80C0C1806E1
:102AE0003006700363F36633C673CC63CC62CC6686
:102AF000CCE6C7FCE0006000700038101FF000005A
:102B000000000000000000000000000003C007E01B
:102B100006E00E700E700C301C3818183FFC3FFC9D
:102B2000700E600EE00700000000000000000000D2
:102B30000000000000000000000000003FF03838F6
:102B4000381C381C38383FF03FF8381C380C380C2B
:102B5000381C3FF83FE000000000000000000000CB
:102B60000000000000000000000000E007FC1E0460
:102B700038003800300070007000700030003800FD
:102B80003C001F9C07FC000000000000000000004B
:102B90000000000000000000000000003FF030785E
:102BA000301C300C300E300E300E300E300E301C1B
:102BB00030383FF03FC0000000000000000000007F
:102BC0000000000000000000000000001FF81800D6
:102BD0001800180018001FF81FF818001800180037
:102BE00018001FF81FF8000000000000000000009F
:102BF0000000000000000000000000001FF81800A6
:102C00001800180018001FF81FF818001800180006
:102C1000180018001800000000000000000000006C
:102C20000000000000000000000000F007FC1E048F
:102C3000380030007000700070FC700C700C300CAC
:102C4000380C1F1C07FC0000000000000000000002
:102C5000000000000000000000000000300C300CFC
:102C6000300C300C300C3FFC3FFC300C300C300C86
:102C7000300C300C300C00000000000000000000A0
:102C80000000000000000000000000003FFC018088
:102C9000018001800180018001800180018001802C
:102CA00001803FFC3FFC000000000000000000002D
:102CB0000000000000000000000000001FF00030D5
:102CC0000030003000300030003000300030003084
:102CD00000701DE01FC000000000000000000000A8
:102CE000000000000000000000000000381C3870E8
:102CF00038E039C03B803F003F003B8039C038E0BE
:102D000038703838381C0000000000000000000057
:102D10000000000000000000000000001C001C007B
:102D20001C001C001C001C001C001C001C001C00C3
:102D30001C001FFC1FFC0000000000000000000041
:102D4000000000000000000000000000381C7C3C77
:102D50006C3E6E6E666E66CE63C663866186600686
:102D60006006600660060000000000000000000031
:102D70000000000000000000000000003C0C3C0CC3
:102D80003E0C360C330C338C318C31CC30EC306C47
:102D9000307C303C301C00000000000000000000CF
:102DA0000000000000000000000001C00FF81C3C03
:102DB000381C700E700E60066006700E700E700C7F
:102DC000381C1E780FE0000000000000000000002A
:102DD0000000000000000000000000003FF0383C50
:102DE000381C380C380C381C38783FE03800380074
:102DF000380038003800000000000000000000002B
:102E00000000000000000000000001C00FF81C3CA2
:102E1000381C700E700E60066006700E700E700C1E
:102E2000381C1E780FE0018001C000FF003C00004C
:102E30000000000000000000000000003FF03838F3
:102E400038183818383838F03FC038E0387038381B
:102E50003838381C380E0000000000000000000068
:102E60000000000000000000000001E00FF8380042
:102E7000380038003C001F8003F00078001C001C64
:102E8000001C38783FE00000000000000000000057
:102E90000000000000000000000000007FFE018034
:102EA000018001800180018001800180018001801A
:102EB000018001800180000000000000000000008F
:102EC000000000000000000000000000300C300C8A
:102ED000300C300C300C300C300C300C300C300C12
:102EE000381C1C380FF0000000000000000000003B
:102EF000000000000000000000000000E006700E6E
:102F0000700E381C381C1C181C380C300E700660F3
:102F100007E003C003C00000000000000000000044
:102F200000000000000000000000000060066006D5
:102F3000600660066186638673C673CE766C366CF7
:102F40003C3C3C3C381C000000000000000000003D
:102F5000000000000000000000000000301C3818D5
:102F60001C380E7007E003C003C007E00E701C3869
:102F70001838381C700E000000000000000000002F
:102F8000000000000000000000000000700E700C47
:102F9000381C1C380E70066007E003C001800180F9
:102FA000018001800180000000000000000000009E
:102FB0000000000000000000000000003FFC001CBA
:102FC0000038007000E001C0038007000E000C0014
:102FD00018003FFC3FFC0000000000000000000063
:102FE000000000000000000007F007F006000600E7
:102FF00006000600060006000600060006000600A1
:1030000006000600060006000600060007F00000A5
:103010000000000000000000000018001C000C0070
:103020000600070003000380018001C000C00060AB
:103030000070003000380018000C00000000000094
:1030400000000000000000000FE00FE000600060E2
:103050000060006000600060006000600060006070
:103060000060006000600060006000600FE0000031
:1030700000000000000000000000000003C006C0C7
:1030800006600C301818301C000000000000000022
:103090000000000000000000000000000000000030
:1030A0000000000000000000000000000000000020
:1030B0000000000000000000000000000000000010
:1030C000000000000000000000000000FFFF000002
:1030D000000000000000000000001E00038000004F
:1030E00000000000000000000000000000000000E0
:1030F00000000000000000000000000000000000D0
:1031000000000000000000000000000000000000BF
:1031100000001FF01038001C001C0FFC1C1C381C89
:10312000381C3CFC1FDC0000000000000000000018
:1031300000000000000000000000380038003800E7
:1031400038003BF83E1C3C1C380C380C380C380C52
:10315000381C3C781FE00000000000000000000068
:10316000000000000000000000000000000000005F
:10317000000007F80E001C00380038003800380046
:103180001C000F1807F800000000000000000000FD
:1031900000000000000000000000001C001C001CDB
:1031A000001C0FFC1C1C381C301C301C301C301C3C
:1031B000383C1CFC0F9C00000000000000000000D8
:1031C00000000000000000000000000000000000FF
:1031D00000000FF01C38381C300C3FFC3000300071
:1031E00038001E0C07FC000000000000000000007A
:1031F0000000000000000000003C01FE038003000E
:10320000030003007FFC7FFC0300030003000300B6
:1032100003000300030000000000000000000000A5
:10322000000000000000000000000000000000009E
:1032300000000FFE1C383818381818381FF03B8073
:1032400030003FF01FFC300E700E381C1FF80000DD
:1032500000000000000000000000380038003800C6
:1032600038003BF83E383C1C381C381C381C381CD5
:10327000381C381C381C0000000000000000000052
:103280000000000000000000018003C003C0000037
:1032900000001FC001C001C001C001C001C001C0C9
:1032A00001C001C03FFC0000000000000000000061
:1032B000000000000000000000200070007000000E
:1032C00000003FF00070007000700070007000702F
:1032D0000070007000700070007020E03FC00000BF
:1032E0000000000000000000000018001800180096
:1032F0001800183C187018E01B801F001B8019E094
:1033000018701838181C00000000000000000000B1
:10331000000000000000000000001FC001C001C04C
:1033200001C001C001C001C001C001C001C001C095
:1033300001C001C03FFC00000000000000000000D0
:10334000000000000000000000000000000000007D
:1033500000006F3C79EE71CE718E718E718E718E20
:10336000718E718E718E0000000000000000000060
:10337000000000000000000000000000000000004D
:1033800000003BF83E383C1C381C381C381C381CEC
:10339000381C381C381C0000000000000000000031
:1033A000000000000000000000000000000000001D
:1033B00000000FF01C3C381C700E700E700E700C6C
:1033C000381C1E780FE00000000000000000000024
:1033D00000000000000000000000000000000000ED
:1033E00000003BF83E1C3C1C380C380C380C380CE8
:1033F000381C3C783FE038003800380038000000C6
:1034000000000000000000000000000000000000BC
:1034100000000FFC1C1C381C301C301C301C301CE5
:10342000383C1CFC0F9C001C001C001C001C0000F5
:10343000000000000000000000000000000000008C
:10344000000019F81F1C1C0C180E1800180018009A
:103450001800180018000000000000000000000024
:10346000000000000000000000000000000000005C
:1034700000000FF81C0018001E000FC001F8001813
:10348000001818381FF000000000000000000000C5
:103490000000000000000000000000000600060020
:1034A00006007FFC06000600060006000600060077
:1034B0000700078401FC000000000000000000007D
:1034C00000000000000000000000000000000000FC
:1034D0000000381C381C381C381C381C381C381CA0
:1034E000383C1CFC0FDC0000000000000000000065
:1034F00000000000000000000000000000000000CC
:103500000000700C381C38181C380C300E70066027
:1035100007E003C003C0000000000000000000003E
:10352000000000000000000000000000000000009B
:103530000000600660066186738E73CC33CC366CF7
:10354000366C3C3C3C3800000000000000000000ED
:10355000000000000000000000000000000000006B
:103560000000381C1C380E7007E003C003C007E0E1
:103570000E701C38381E0000000000000000000023
:10358000000000000000000000000000000000003B
:103590000000700C381C38181C380C300E70066097
:1035A00007E003C003C0038007000E007C0000009A
:1035B000000000000000000000000000000000000B
:1035C00000001FF80038007000E001C00380070011
:1035D0000C001FFC3FFC0000000000000000000089
:1035E0000000000000000000007801F80380038064
:1035F00003800380038003003F003E00030003803C
:103600000380038003800380038001C000F8000072
:1036100000000000018001800180018001800180A4
:103620000180018001800180018001800180018092
:103630000180018001800180018001800180000003
:1036400000000000000000001E001F80018001C07B
:1036500001C001C001C000C000FC007C00C001C06E
:1036600001C001C001C001C001C003801F000000F3
:10367000000000000000000000000000000000004A
:103680000000000000001C003F0671CE60FC00003E
:10369000000000000000000000000000000000002A
:1036A00040F0200070472DE9F14FB0B092460491F0
:1036B0000DF142013A9A2B9199464A7000200AE096
:1036C0001AF8011B0498309A90470028049000F0E3
:1036D00031860D98401C0D909AF8000050B12528B5
:1036E000EED1002100220791089209910A920B91D4
:1036F0000C9204E00D9800F01FBE41F001011AF891
:10370000010F2028F9D023280CD02B2804D02D28F5
:1037100005D0302809D00BE041F00201EFE741F07D
:103720000401ECE741F00801E9E741F01001E6E7A8
:103730002A280FD1D9F8002052F8040BC9F800202C
:1037400000280F9003D540420F9041F004010AF188
:10375000010A14E00F92DFF8E83B0AE00F98984264
:1037600005DA00EB800402EB4402303A0F920AF1D2
:10377000010A9AF80020A2F130000A28EED39AF844
:1037800000002E2803D04FF0FF320E9229E01AF8E5
:10379000010F2A2809D1D9F8000050F8042BC9F8E4
:1037A00000000E920AF1010A1BE02D280CBF0AF15D
:1037B000010A002000220E92DFF8844B0BE040B992
:1037C0000E9AA24205DA02EB820503EB4503303B79
:1037D0000E930AF1010A9AF80030A3F130020A2A86
:1037E000EDD3ADF840100FF65C309AF8001000F001
:1037F000C1FE08B11AF8010B8DF842009DF8420095
:10380000682805D19AF8000068280CD1622106E0EA
:103810006C2804BF9AF800006C2804D171218DF83F
:1038200042100AF1010A12A806901AF801BBBBF176
:1038300025012CD01C3900F09481091F022940F287
:103840009081133900F0A884093900F08A81891E1B
:1038500000F03D85491E00F0EA84491E022940F22D
:103860008081091F00F0E384491F00F0EF80491EAA
:1038700000F09284491E00F0D780C91E0CD0891E2A
:1038800000F08A84C91E00F0878400F02BBD01225D
:103890000792252100F023BDD9F8000050F8044B11
:1038A000C9F80000002C059440F0AB802B994878B3
:1038B000002800F0A1804FF0FF340FF6902000F0B8
:1038C00069FE201A40F0368500F018BD01236A46D3
:1038D00002A9304600F0FEFD002840F02B856D1E49
:1038E000F4D13096079D12AF75B1309E17F8011BC9
:1038F0000498B0470028049000F01C850D98401CE7
:103900006D1E0D90F2D130960A9D3021002D8DF85C
:1039100000100CDD309E01236A4602A9304600F0FB
:10392000D9FD002840F006856D1EF4D13096059F24
:10393000089D75B1309E17F8011B0498B047002808
:10394000049000F0F7840D98401C6D1E0D90F2D18C
:1039500030960B9D3021002D8DF800100CDD309E2F
:1039600001236A4602A9304600F0B4FD002840F069
:10397000E1846D1EF4D1309605980899099D471889
:1039800075B1309E17F8011B0498B04700280490C9
:1039900000F0D0840D98401C6D1E0D90F2D1309631
:1039A0000C9D3021002D8DF800100CDD309E012380
:1039B0006A4602A9304600F08DFD002840F0BA8426
:1039C0006D1EF4D130969DF8400041077FF584AE1E
:1039D0002020002C8DF800007FF77EAE309D012363
:1039E0006A4602A9284600F075FD002840F0A2842E
:1039F000641EF4D130956FE60FF63830059000F074
:103A00007DBC0E9D002D04D5204600F0E3FD04464C
:103A100007E02A46204600F0F9FD002814BF041BE9
:103A20002C46089400F06ABCD9F8001051F8040B39
:103A3000C9F8001020F00004002121F0FF35CDE985
:103A4000024512AB0593782100F03DBC2B994878D4
:103A500020B14FF0FF340FF6AC2030E79DF8420064
:103A6000622860D0682817D06A283FD06C2806D01A
:103A7000712847D074282CD07A281DD062E0D9F85C
:103A8000001051F8040BC9F80010002866D14FF05F
:103A9000FF340FF6882012E7D9F8001051F8040B14
:103AA000C9F8001020B94FF0FF340FF6702006E778
:103AB0000D99018000F022BCD9F8001051F8040BD8
:103AC000C9F80010002849D14FF0FF340FF64C2000
:103AD000F5E6D9F8001051F8040BC9F800100028D9
:103AE0003CD14FF0FF340FF63420E8E6D9F800104F
:103AF00051F8040BC9F8001080B94FF0FF340FF6ED
:103B00001C20DCE6D9F8001051F8040BC9F80010AD
:103B100020B94FF0FF340FF60420D0E60D9AD317EA
:103B2000C0E90023EAE3D9F8001051F8040BC9F802
:103B3000001020B94FF0FF340FF6E010BFE60D99EA
:103B40000170DBE3D9F8001051F8040BC9F800103C
:103B500020B94FF0FF340FF6C410B0E60D990160A4
:103B6000CCE39DF842004C2807BFD9F80010CB1DCC
:103B7000D9F80000C31D23F00703C9F80030D3E9CA
:103B800000010833C9F80030CDE90201C80F02D0A6
:103B900007982D210AE0BDF84000810702D507985B
:103BA0002B2103E0C00705D50798202112AB19543B
:103BB000401C079012A80799DDE9024543184BF015
:103BC00020006128059321AE0BD00E98002802D565
:103BD00006200E9005E001BF4BF020006728012170
:103BE0000E91DDE902014F007F1517F1010F0DD194
:103BF00008030BD0ABF1610203201A2A089002D20D
:103C00000FF634110FE00FF634110CE017F1010F2D
:103C10000ED109030CD1ABF1610203201A2A0890DE
:103C20001CD30FF620110322184600F01BFD65E39C
:103C3000DDE902016A4600F069FDCDE902014BF0C1
:103C40002000612811D1059830210170821C059255
:103C5000BBF1610F0CBF7821582102E00FF6E001A3
:103C6000E1E741700798801C0790DDE9020120F030
:103C7000000231F0004308BF002A02D100250024D1
:103C800045E14BF02008B8F1610F40F095800E98A7
:103C9000002847BF21210191401C0190019F7F1CFA
:103CA0002046294600220023DDE9024500F066FD9A
:103CB00038BF85F0004500998DF88420091F002F3A
:103CC00000910DF1850034DD06462046294600228C
:103CD000002300F06DFD2BD21C2200F083FD044672
:103CE0000D4600F01DFEFF1F002F804609DD00F08D
:103CF00033FE02460B462046294600F0F5FE0446F8
:103D00000D46F01D0721B8F1000F0CDD491E5EBF06
:103D100008F00F0200F8012D4FEA2818F3D502E051
:103D2000002200F8012D491EFAD5C61D002FCCDC5B
:103D300030460DF18501401A01990DF185060546C1
:103D40008842C8BF0D46002D2FD4854206DA0DF1FA
:103D50008500415D0829A8BF0F2000DA0020294610
:103D600021AA0A4400E06D1E12F80139491E83425F
:103D7000F9D00F2804D10DF18500425C521C425449
:103D8000002904D50098001D21AE6D1C0090681E0E
:103D90000BD431180A783032D3B23A2BA4BF5A442C
:103DA0003A3A401E01F80129F4D50E98002840F156
:103DB000AD80691E0E91A9E00099DFF8082747F24F
:103DC0009750414391FBF2F2009225F00045C2F179
:103DD0000702002A04DD2046294600F04FFB0BE0D5
:103DE00052420020DFF8E01600F048FB02460B4686
:103DF0002046294600F0EAFE04460D46B8F1660F5B
:103E000006BF009F0A3706270E983F18142FC8BF19
:103E1000142730208DF884000DF1850000E0304635
:103E2000002F35DD06462046294600F0F3FF014607
:103E30000A4606F1080304200A26B2FBF6F606EB52
:103E4000860EA2EB4E02303203F8012C0A22B6FB9A
:103E5000F2F202EB820EA6EB4E063036401E03F85D
:103E6000026DE9D1083F002F03F10806D7DD0846AF
:103E700000F0E2FF02460B462046294600F034FEE1
:103E80000022DFF8483600F0E5FF04460D46CAE799
:103E90000DF18501401A0DF1850604E00099491ED7
:103EA000401E0091761C31783029F7D0B8F1660FAA
:103EB00002D10099491C04E0B8F1650F0CBF012143
:103EC00000210E9D4D19A842B8BF451E002D1DD4DE
:103ED000854204DA705D3428C8BF392000DC302008
:103EE0002946721E531800E06D1E13F80149491E41
:103EF0008442F9D0392802D1705C401C70540029EA
:103F000004D50098401C16466D1C0090009C01F0E2
:103F100077F8406A0778DDF8388028B2002802DC9C
:103F200001250FF224664BF02000662808BF641CB0
:103F300016D0672846D120B210F1040F48DB404567
:103F400046DA9DF84000641C010703D428B24045BE
:103F5000D8BF804620B2B8EB000848BF4FF0000839
:103F60000FFA84FBBBF1000F00F3B5800898411CE9
:103F70000891302205990A54B8F1000F03DC9DF82E
:103F80004000010704D50898411C089105990F5479
:103F900018EB0B0FB8BFC8F1000424B26042A04474
:103FA0002AB20B909045B8BF4546059B08982DB2A4
:103FB00009952A463146184400F054FBA8EB050049
:103FC0000C90D2E0BBF1610F17D14FF0700B19E0EC
:103FD00028B2404504DA9DF840100A0758BF8046D1
:103FE000B8F1010848BF4FF00008BBF1670F14BFDC
:103FF0004FF0450B4FF0650B04E0BBF1410F08BFDC
:104000004FF0500B0898411C0891B8F1000F05992A
:1040100016F8012B0A5403DC9DF8400001071AD55D
:104020000898411C0891B8F1000F05990F5412DD52
:104030006D1E28B28045B8BF45460598089B2AB238
:104040003146184400F00EFB08992DB2691808910A
:10405000A8EB05000B9005980899084421B20029A7
:1040600080F800B003D42B224270821C04E02D2281
:1040700042700C46821C644200212CAB20460AE0B0
:1040800004460A2094FBF0F000EB8005A4EB450405
:1040900003F8014B491C00B20028F1DC012906DCC1
:1040A0004BF02000652804BF302002F8010B0029E6
:1040B0002CAB08D1302002F8010B06E0491E585CF9
:1040C000303002F8010B0029F8DC05990898084403
:1040D000121A099249E028B221B288421CDA0598E6
:1040E000089B2AB23146184400F0BCFA08992DB258
:1040F00069180891ABEB0500B8F1000F0B9003DCD9
:104100009DF84000020704D5059847540999491CB9
:104110000991CDF8308028E00598089B22B23146FD
:10412000184400F09FFA08982D1B5844B8F1000F6E
:10413000089003DC9DF840100A0703D5411C089144
:1041400005990F5428B28045B8BF45460598089B8D
:104150002AB206EB0B01184400F084FA08982DB23D
:1041600028180890A8EB05000B909DF8400000F07F
:104170001400102840F0C280079A08990B988A18FA
:10418000099982180C988A1882180F98824280F236
:10419000B580821A0A92B1E09DF84200622808D0E8
:1041A00068280ED06A2814D06C281FD0712810D02F
:1041B0001CE0D9F8001051F8040BC9F80010C0B287
:1041C0001AE0D9F8001051F8040BC9F8001080B2B9
:1041D00012E0D9F80000C21D22F00702C9F8002041
:1041E000D2E900010832C9F8002006E0D9F8001031
:1041F00051F8040BC9F800100021CDE902019DF827
:10420000400001075AD5DDE90223002B08BF002A30
:1042100054D04BF02000782850D1079812A93022B2
:104220000A54401C431C079301F800B046E09DF877
:104230004200622808D068280ED06A2814D06C2862
:104240001FD0712810D01CE0D9F8001051F8040BD1
:10425000C9F8001040B21AE0D9F8001051F8040B68
:10426000C9F8001000B212E0D9F80000C21D22F017
:104270000702C9F80020D2E900010832C9F800207D
:1042800006E0D9F8001051F8040BC9F80010C11766
:10429000CDE90201002902D507982D210AE0BDF8D9
:1042A0004000810702D507982B2103E0C00705D500
:1042B0000798202112AA1154401C079012A80799B0
:1042C00001440591594602A800F04EF816E001207D
:1042D0000790D9F8000050F8041BC9F800008DF8C9
:1042E00048100BE001212522BBF1000F07918DF84A
:1042F000482003D0022207928DF849B00F9A079800
:104300000A990C9C121A0898521A0B99121A0998B9
:10431000521A121A9DF84000141B41073FF5E2AAF9
:104320002020002C8DF800007FF7DCAA309E254667
:10433000FFF7CCBA4FF0FF3031B0BDE8F08F00008E
:10434000CBCCCC0C686A6C747A4C00007072696ECD
:1043500074665F733A20626164202573206172671E
:10436000756D656E740000002DE9FC4707468A46AE
:104370003C6950466F2808BF082505D0FFF790F923
:10438000782814BF0A251025D7E900013C2680466D
:104390008946BAF1640F18BFBAF1690F05D1002937
:1043A00003D5D8F1000869EB4909B9F1000F08BF3E
:1043B000B8F1000F0CD1386B50B9082D3AD197F8ED
:1043C0003800010736D530223B2684F83B2031E007
:1043D0008DF800A0404649462A46EB1700F014FE2F
:1043E0003032D0B2761E3A2801960EDAA2554046F7
:1043F00049462A46EB1700F007FE80465FEA0109AE
:1044000008BFB8F1000F05D108E09DF800001218B0
:10441000513AEBE7F868A1198842DBD3082D09D19E
:1044200097F83800010705D5A05D302802D0761E28
:104430003020A055C6F13C02BA61A119F960386B71
:10444000824208DA821A3A624FF6EF70398F0140E1
:104450003987BDE8F38700280ED597F8380000F0BB
:104460001400102808D17B6B7969386A5B1A1B1A13
:104470009A1A002AC8BF3A62BDE8F3872DE9D043F3
:1044800006460F4614464FF00008DFF8449012E04D
:10449000E00707D542464B463046394600F0DAFC85
:1044A00006460F464046494642464B4600F0D2FC7F
:1044B000641080468946002CEAD130463946BDE872
:1044C000D0830000A08601000000F03F84D7974110
:1044D00000002440F8B505460E4617461C4600204D
:1044E0005CB117F8011BB068A847B06030B1F06A42
:1044F000401CF0620020641EF3D1F2BD4FF0FF308B
:10450000F2BD00007072696E74665F733A20256EAA
:1045100020646973616C6C6F776564007072696E9A
:1045200074663A2062616420256E20617267756D41
:10453000656E7400000000006E616E004E414E001A
:10454000696E6600494E460030000EE0026843681E
:10455000024408305FEAC37C44BF4B445B1E52F800
:1045600004CB43F804CB091FF9D150F8041B0029F0
:10457000ECD17047C9B202788A421AB11CBF10F858
:10458000012FF9E718BF002070470268531C036031
:104590001170704780B500B906A005490B681BB1C2
:1045A00022220021984701E000F046FE222002BDB1
:1045B00004010020636F6E73747261696E74206809
:1045C000616E646C65723A20626164206D6573731C
:1045D0006167650000F10103810704D010F8011B39
:1045E000820781B1FAD10268A2F10131914311F041
:1045F000803104BF50F8042FF6E709BAB1FA81F10F
:1046000000EBD100401CC01A70472E00C9B28307CE
:1046100006D0521E22D310F8013B9942F7D11FE079
:10462000083A13D302F1040241EA012141EA0141AF
:1046300050F8043B121F21BF4B40A3F1013C2CEA70
:10464000030C1CF0803FF3D0C9B2001F083210F8F1
:10465000013B521E28BF91EA030FF8D818BF012072
:10466000401E704762B38B0708D0521E11F8013B01
:1046700000F8013B00F024808B07F6D1830740F05F
:10468000208000BF103A07D330B4B1E83810103A98
:10469000A0E83810F9D230BC530724BFB1E80810A5
:1046A000A0E8081044BF51F8043B40F8043BD2078F
:1046B00024BF31F8022B20F8022B44BF0B78037083
:1046C0007047121F17D35B0009D151F8043B20F843
:1046D000023B1B0C121F20F8023BF6D20BE051F8F4
:1046E000043B00F8013B1B0A20F8023B1B0C121F85
:1046F00000F8013BF3D238BF121D521E24BF11F83F
:10470000013B00F8013BF8D87047000010B5144693
:1047100000F002F8226010BDC1F30A5343B14A0011
:1047200012F5001F28D2A3F2FE32A1EB025170470E
:1047300050EA410C20D001F0004C31EA0C01B1FAF2
:1047400081F204BFB0FA80F3D2180B3AB2F1200321
:104750002CBF00FA03F1914041EA0C013EBFC2F1C7
:10476000200C20FA0CF319439040524240F2FD33E2
:10477000D21A01EB035170470022704741EA030C43
:1047800050EA4C0C52EA0C0C4FF4001C09D307D031
:104790001CEB410F9CBF1CEB430F8B4208BF8242B6
:1047A00070471CEB430FFBD8994208BF90427047FB
:1047B00041EA030C50EA4C0C52EA0C0C4FF4001C7A
:1047C00009D307D01CEB410F9CBF1CEB430F994250
:1047D00008BF904270471CEB410FFBD88B4208BFCB
:1047E00082427047124254D440F2FF7C1CEA1153BB
:1047F0000FD0634531D09B1863453CBF01EB02519C
:10480000704701F0004141EA0C510020AFF30080F5
:10481000704750EA410320D001F0004C91EA0C01AE
:104820001CD0B1FA81F30B3B9A420DD9D21A9940B0
:1048300051EA0C01C3F1200C20FA0CFC61449840B1
:10484000531C40F2FF7CD7E7914041EA0C01C2F1D2
:10485000200C20FA0CF3194390407047B0FA80F313
:104860001533202BE0D3202AEED3203A203B9A4266
:1048700009D9D21A00FA03F141EA0C010020531CB5
:1048800040F2FF7CB8E700FA02F141EA0C01002097
:104890007047524240F2FF7C1CEA11530DD0634531
:1048A000DBD0B2EB030C3CBFA1EB025170470CF123
:1048B000010221EA035141F4801150EA410CCCD0AD
:1048C00001F0004C352A27DC30B481EA0C01B2F14A
:1048D000200309DAC2F12003044601FA03F5D040AF
:1048E0002843D1409C400CE0C3F12002450020FA4F
:1048F00003F418BF44F0010421FA03F091400C4383
:10490000002174F1004550F1000051EB0C012442EC
:1049100030BC7FF47BAF70476146002076E7000033
:10492000C1F30A5340F21E42D31A0CDDCA0283F3CC
:10493000070342EA505242F00042DA4002EBE172D1
:1049400082EAE17070476FEAE17203F2E13008B188
:1049500082F000407047000010F0004160B148BF95
:104960004042B0FA80F29040D21CC2F5846241EA23
:10497000025202EBD021400570470000841A71EB0F
:10498000030604D26E40001BB141121973414FF46B
:10499000001C1CEB410F34BF7CEB430683E00C0D85
:1049A000A4EB1356362E00F37C80012E45EAC32378
:1049B00041DC43EA525312BFD20292025B08240543
:1049C00045EAC12141EA5051D2EBC020994125D49A
:1049D00007D1B0FA80F610FA06F162D00020203636
:1049E00008E0B1FA81F6B140C6F1200220FA02F2E5
:1049F0001143B0404FEAF474B4EB465434F001066E
:104A00004FEA74040AD8D6F50016760D04F0004477
:104A1000F04061FA06F25040F1404840C00A40EAD6
:104A2000415021F0004128BF5FEA500550F10000DD
:104A300044EBD12135E0DB0A45EAC121C90AB6F1D0
:104A400020050EDD42EA0242120CC5F1200603FAEF
:104A500006F6EB4042EA06056D42984161F100011D
:104A60000DE062FA06F5F240554063FA06FC82EA70
:104A70000C02F3405A406D42904161EB030111F486
:104A8000801F05D1641E620502D06D00404149417E
:104A900021F48011430875F1004350F1000041EB0F
:104AA000045170BC70471CEB410F15D223F000433A
:104AB00052EA43060BD04FEA4C0CBCEB410F04D832
:104AC0000C0D661E342EB7DDEBE7801A994150EAD3
:104AD000410608BF0021E4E708BF1CEB430F28BFD5
:104AE0006FF00001DDE7000070B491EA030F4FF0B2
:104AF00000457FF543AF6B40841A71EB030603D288
:104B0000001BB141121973414FF4001C1CEB410F03
:104B100034BF7CEB430442E00C0DA4EB1356352E5E
:104B20004FDC45EAC323DB0A45EAC121C912B6F1CD
:104B300020050DDD63FA05F6EB4086EA0305124217
:104B400018BF45F00105C01851F100010CD213E067
:104B500062FA06F5F2405540F3415A40B340F34043
:104B60005A408018594107D349085FEA30005FEA8C
:104B7000350528BF45F0010501F58011420875F1A2
:104B8000004250F1000041EB04514E0016F5001FA9
:104B900070BC38BF70470020090D090570471CEB39
:104BA000410F10D252EA43060BD0BCEB410F05D89F
:104BB0000C0DAB43661E342EB6DD02E0AB4380180D
:104BC000594170BC704770BC70470000F0B540F2AE
:104BD000FF7581EA030C0CF0004C15EA11541DBF5F
:104BE00015EA1357AC42AF42E5E0BC41C1F31301F3
:104BF000C3F31303801A994143F4801304D2641E53
:104C00000018494180185941C90241EA5051B1FB8D
:104C1000F3F603FB1611A2FB0675D7EBC020A941E2
:104C200002D2761E80185941C90241EA5051B1FBA7
:104C3000F3FE03FB1E11A2FB0E75D7EBC020A941AA
:104C400003D2AEF1010E80185941890241EA905118
:104C5000760546EA8E2EB1FBF3F603FB1611A2FB96
:104C60000675D7EB8020A94102D2761E80185941E3
:104C7000C90241EA50514EEA060EB1FBF3F603FBBE
:104C80001611A2FB0675D7EBC020A94102D2761EF1
:104C900080185941C90241EA5051B1FBF3F703FBB7
:104CA0001711A2FB0735D3EBC020A94167F100071C
:104CB0000CBF004247F0010766F3D5274FEA1E31CB
:104CC000B80814F5806412DDBD0775F1004250EBA1
:104CD0000E5051EB045111F5801F5CBF41EA0C01ED
:104CE000F0BD4CF07F6141F0E0410020F0BDBD0718
:104CF0006D0840EA0E5041F48011D4F10104B4F182
:104D000020060ADAC4F120060200E04001FA06F3A8
:104D1000E1401843B24015430EE0342C13DCC6F1D9
:104D2000200445EA40056D0820FA06F2154321FAF1
:104D300006F0A1400D43002175F1004250F1000042
:104D400051EB0C01F0BD00205FEA0C01F0BDCFB9C2
:104D500092185B41B3FA83F704BFB2FA82F6BF1927
:104D60000B3FB7F120062FBF02FA06F3BB40C7F195
:104D7000200622FA06F638BF3343BA401CB1E419C4
:104D8000641E33E77F4231F00041B1FA81F404BF81
:104D9000B0FA80F6A4190B3CB4F120062FBF00FA3C
:104DA00006F1A140C4F1200620FA06F638BF3143CF
:104DB000A0403C1B1AE7AC421ABF05EA1357AF42AA
:104DC00012E050EA41061CBF52EA4306BFE750EA30
:104DD0004107304661461CBF41EA0551F0BD52EA29
:104DE000430C08BFC143F0BD00204FF4001616EB82
:104DF000410F98BF16EB430F08BF16EB410F24BFBE
:104E0000C14305E016EB430F0CBF61464CEA055168
:104E1000F0BD0000400D40F21E4C40EAC120BCEB4A
:104E2000115C40F0004003D48CF30701C840704788
:104E30006FEAE1707047000050B1B0FA80F188402D
:104E4000C91CC1F58461090501EBD02140057047FB
:104E50000146704730B540F2FF7C1CEA11541DBF7B
:104E60001CEA1355644565453FE0641981EA030C6B
:104E70006FF35F530CF0004C43F48013C90241F010
:104E8000004141EA505EC5021100A5FB0202002864
:104E90004FF00000EEFB01204FF00001E3FB052185
:104EA00018BF42F00102401800214941E3FB0E0106
:104EB000A4F580640D0302D292184041494154F197
:104EC000010470DD450872F1004250F1000051EB21
:104ED0000451A1F5801102D441EA0C0130BD40F229
:104EE000FF7E4CEA0E51002030BD0CEA135564459C
:104EF00018BF654581EA030C0CF0004C41D050EA24
:104F0000410E1CBF52EA430E02E06146002030BD54
:104F100024422C441BD15FEA050EF6D0090302BFE0
:104F200001460020AEF1140EB1FA81F5AEEB050496
:104F300001FA05FE0C35C5F1200100FA05F5C8405F
:104F40004EEA000E6FF35F5343F480139CE733F097
:104F50000043B3FA83F504BFB2FA82FE75440B3DF9
:104F6000641BB5F1200E2FBF02FA0EF3AB40C5F162
:104F7000200E22FA0EFE38BF43EA0E03AA40641C3C
:104F80007CE750EA410E14BF52EA430E6FF0000175
:104F90004FF4001515EB430F8EBF194615EB410F6B
:104FA0009DE7B4D830BDD4F10104B4F120050FDA87
:104FB000C4F12005520828BF42F0010210FA05FE94
:104FC00001FA05F57244E2BFE0402843E1400FE0FA
:104FD000352C9ADCC5F1200452EA400220FA05F291
:104FE00018BF42F0010231FA05F0A1400A43002146
:104FF00072F1004250F1000051EB0C0130BD000095
:105000000048704738000020BBBBE1B1B2F5803FDB
:1050100080F07E80022A1ED98C46B1FBF2F102FBA1
:1050200011C31B0443EA1043B3FBF2FC02FB1C3325
:1050300080B240EA0343B3FBF2F002FB103240EAD5
:105040000C4000237047022A05D98446B0FBF2F0D9
:1050500002FB10C270474AB105D100F001024908B5
:105060005FEA3000704700220023704700F0E8B884
:105070000B000200002100207047904271EB030CEE
:10508000F6D3B3F5803F2FD2F0B5B3FA83F7B1FA78
:1050900081F4A7F10F0E3D1B5340CEF1200602FA1A
:1050A0000EF2F3415340B5F10F0746D80F3C2C44A4
:1050B0004140C4F12006A040F1414140B1FBF3F66C
:1050C00003FB1611A2FB0645001BA94102D2761E66
:1050D0008018594180EA010221FA0EF362FA0EF2B9
:1050E00000215A403046F0BD30B4B1FBF3FC03FB65
:1050F0001C11A2FB0C45001BA94103D2ACF1010C11
:105100008018594130BC02460B466046002170476A
:10511000B2F1807F65D3F0B5B2FA82F7B1FA81F4CB
:10512000C7F10F063D1B22FA06F307F1110EF241FB
:1051300020355A40B5F10F07B8D94140C4F12006D7
:10514000A040F1414140B1FBF3FC03FB1C11A2FB69
:105150000C45001BA94103D2BCF1010C8018594138
:105160000F2F12D30F3FC90341EA5041B1FBF3F6B1
:1051700003FB1611A2FB0645D4EBC030A94102D2B5
:10518000761E8018594146EACC3C07B34140C7F12E
:105190002006B840F1414140B1FBF3F603FB161184
:1051A000A2FB0645001BA94102D2761E8018594178
:1051B00080EA010221FA0EF3C7F1200462FA0EF22E
:1051C0000CFA07F05A402CFA04F13043F0BD80EAA3
:1051D000010221FA0EF3002162FA0EF260465A40F3
:1051E000F0BD8C46B1FBF2F102FB11C31B0243EA96
:1051F0001063B3FBF2FC02FB1C331B024CEA0020E1
:1052000043EA1063B3FBF2FC02FB1C331B024CEAC3
:10521000002043EA1063B3FBF2FC02FB1C331B02C9
:105220004CEA002043EA1063B3FBF2FC02FB1C32A1
:105230004CEA002000237047012000F003B8000072
:105240007047000080B5AFF30080024A11001820BB
:10525000ABBEFBE72600020038B50446DFF8245950
:10526000002200F01DF800F020F84FF0C0400122AD
:1052700004802846BDE838400FE038B50446DFF822
:105280000459012200F00CF800F00FF8DFF8F808DC
:1052900004802846BDE838400122802100F064BD2A
:1052A0004FF40061284600F05FBD002280212846AF
:1052B00000F05ABD38B5DFF8CC4801224FF4006148
:1052C00000F01FF8002200F01BF8DFF8BC0805888A
:1052D000012200F015F8284632BD10B5DFF8AC48C1
:1052E0000022022100F00DF80A2000F05FFD0122EB
:1052F000022100F006F8BDE81040642000F056BD21
:105300008021204600F030BD38B50420FFF7A4FF0F
:10531000FFF7D0FFFFF7CEFFFFF7CCFF0446FFF704
:10532000C9FF40EA042048F2525580B2A84212D088
:10533000D320FFF791FFFFF7BDFFFFF7BBFFFFF79C
:10534000B9FF0446FFF7B6FF40EA042049F24135B1
:1053500080B2A84201D1284632BD002032BD38B506
:10536000082804463EDADFF828584FF4A0702C7065
:10537000E10752BFF0210146F020688129813620E3
:10538000FFF76AFF6888640149F24131884208BF2B
:1053900044F0080004D048F25251884202D120461D
:1053A000FFF76BFF2A20FFF757FF00F001FC00F02A
:1053B000FFFB288900F06BF82889401E00F069F88F
:1053C0002B20FFF749FF00F0F3FB00F0F1FB6889A9
:1053D00000F05DF86889401E00F05BF8BDE83240DF
:1053E0002C2039E731BD38B514461D4600F021F8B0
:1053F000DFF89C07C1886C432046BDE834404BE091
:10540000DFF88C279080D1807047DFF88417888080
:105410007047DFF87C17C8607047DFF87407C06812
:1054200070470146DFF86807C268D3880289002008
:10543000D9E7F8B504460D4616461F462A20FFF761
:105440000BFF200AFFF719FF04F0FF00FFF715FF1D
:10545000311900F018F83419601E00F01AF82B20EA
:10546000FFF7FAFE280AFFF708FF05F0FF00FFF735
:1054700004FF791900F007F87D19681EBDE8F240B5
:1054800000F0FF00F9E6491E0902080CF5E6401E8F
:10549000001200F0FF00F0E670B504460D462C2027
:1054A000FFF7DAFE002603E02846FFF7E6FE761C4B
:1054B000A642F9D370BD38B5DFF8D44623899842A7
:1054C0003CBF6589A94208D201230122FFF7B1FF41
:1054D000A188BDE834400120DEE731BDF8B50546BE
:1054E0000E460027DFF8A84619E0E0682289C18847
:1054F0008088BBB2C3189A42BCBF00274D1960898F
:10550000AAB289188842BCBF0027002516F8012BD3
:10551000A9B2B8B200F007F8E0688188CF193078F6
:105520000028E2D1F1BD2DE9F041DFF86466F468AE
:10553000A788E388D4F800803D465D434FEAA50E76
:1055400005EB5E756D05203A2D0E92B26A439044CC
:105550003A46FFF76EFF2C20FFF77EFE002700E0A3
:105560007F1CAF420FDA002418F807008021E140C9
:1055700008420CBFF088B088FFF77FFE641CE0B2E1
:105580000828F1DBECE7BDE8F0812DE9FE4F0C4681
:105590000025121A1B1BA94682464FF6FF78002AE7
:1055A000C8BF4FF0010B03DC0EBFAB46C3465242EF
:1055B000002BC8BF4FF0010802DC0CBFA8465B42BD
:1055C00016469A42B8BF1E4600270192009312E089
:1055D000A1B21FFA8AF0FFF76EFF019800994519F2
:1055E0008944AE42BCBFAD1BDA444E45BCBFA9EBFB
:1055F000060944447F1C701CB9B28842E8DABDE851
:10560000F78FF8B5044606980D4616461F4650B16A
:105610002046FFF70EFFDFF8780581887E4330468D
:10562000BDE8F44038E73619761E2B46B2B2204664
:10563000FFF7ABFF7F197F1EBBB2B2B2B9B22046F3
:10564000FFF7A3FFBBB2224629462046FFF79DFF86
:10565000BBB2B2B22946B0B201B0BDE8F04094E7A7
:105660002DE9FE4F0FFA82F95200C2F10302804683
:105670008A464FF0000B17B202E007EB8B07BF1D05
:10568000D94568DBAAEB0B00ADF802000BEB080470
:105690009DF80800002825D00BEB0A00A8EB0B01B1
:1056A0005D46ADF80000ADF80410A94542DB05EBFE
:1056B0000A0600F05EF800F050F8A8EB050600F0CE
:1056C00054F800F04EF8AAEB050600F046F800F09A
:1056D00050F805EB080600F044F800F046F86D1CA1
:1056E0002DB2E2E709EB0A0600F043F8A8EB0B0540
:1056F000B1B2A8B2FFF7DFFE0BEB0A00ADF8000075
:10570000A8EB090600F031F800F02BF8AAEB090627
:10571000B1B2A8B2FFF7CFFE00F02BF809EB0804F6
:10572000BDF80210A0B2FFF7C6FEBDF80010A0B28F
:10573000FFF7C1FE0BF101000FFA80FB38B2002821
:105740009BD4ABEB090007EB8007A9F101000A37F6
:105750000FFA80F994E7BDE8F78FBDF80400B1B205
:10576000A9E6BDF80210B0B2A5E6BDF80010B0B2CF
:10577000A1E6B1B2A0B29EE638B500F02BFB00F076
:1057800079FB01224FF48051DFF8F803DFF8004481
:10579000DFF8005400F0E8FAFFF79FFDFFF7B4FDD3
:1057A00049F241318842608040F0FF80CF20FFF70E
:1057B00053FD00F0FDF98120FFF75FFD00F0F2F9E5
:1057C000ED20FFF749FD6420FFF757FD0320FFF7A9
:1057D00054FD00F0EAF98120FFF74FFDE820FFF7C4
:1057E0003BFD8520FFF749FD1020FFF746FD78209F
:1057F000FFF743FDCB20FFF72FFD3920FFF73DFDDD
:105800002C20FFF73AFD00F0D3F93420FFF735FDE7
:105810000620FFF732FDF720FFF71EFD2020FFF7DF
:105820002CFDEA20FFF718FD00F0C2F900F0C0F9E6
:10583000B120FFF711FD00F0BBF91B20FFF71DFDA4
:10584000B620FFF709FD0A20FFF717FDA220FFF79A
:1058500014FDC020FFF700FD3520FFF70EFDC1202D
:10586000FFF7FAFC1120FFF708FDC520FFF7F4FC55
:105870004520FFF702FD4520FFF7FFFCC720FFF79B
:10588000EBFCA220FFF7F9FCF220FFF7E5FC00F0AB
:105890008FF92620FFF7E0FC00F081F9E020FFF708
:1058A000DBFC0F20FFF7E9FC2620FFF7E6FC2420B5
:1058B000FFF7E3FC0B20FFF7E0FC0E20FFF7DDFC19
:1058C0000920FFF7DAFC5420FFF7D7FCA820FFF7E8
:1058D000D4FC4620FFF7D1FC0C20FFF7CEFC1720AC
:1058E000FFF7CBFC0920FFF7C8FC0F20FFF7C5FC32
:1058F00000F052F900F05CF9E120FFF7ADFC00F098
:1059000057F91920FFF7B9FC1B20FFF7B6FC04205C
:10591000FFF7B3FC1020FFF7B0FC00F03DF92A20A0
:10592000FFF7ABFC4720FFF7A8FC3920FFF7A5FCE9
:105930000320FFF7A2FC0620FFF79FFC0620FFF7DD
:105940009CFC00F02FF93820FFF797FC0F20FFF7A1
:1059500094FC3620FFF780FCC820FFF78EFC2A203D
:10596000FFF77AFC00F024F900F022F900F020F9AA
:10597000EF20FFF782FC2B20FFF76EFC00F018F9F8
:1059800000F016F900F00BF93F20FFF776FC3A2003
:10599000FFF762FC5520FFF770FC1120FFF75CFC5D
:1059A000284600F003FA2920E5E048F252518842E7
:1059B00040F0E380CF20FFF74FFC00F0F9F8C12062
:1059C000FFF75BFC00F0EEF8ED20FFF745FC6420EC
:1059D000FFF753FC0320FFF750FC00F0E6F88120AE
:1059E000FFF74BFCE820FFF737FC8520FFF745FC6D
:1059F0001020FFF742FC7820FFF73FFCCB20FFF799
:105A00002BFC3920FFF739FC2C20FFF736FC00F087
:105A1000CFF83420FFF731FC0220FFF72EFCF720EF
:105A2000FFF71AFC2020FFF728FCEA20FFF714FC00
:105A300000F0BEF800F0BCF8C020FFF70DFC2120FC
:105A4000FFF71BFCC120FFF707FC1120FFF715FC37
:105A5000C520FFF701FC2D20FFF70FFC3320FFF7D7
:105A60000CFC3620FFF7F8FB00F0A2F83A20FFF715
:105A7000F3FB5520FFF701FCB120FFF7EDFB00F031
:105A800097F81720FFF7F9FBB620FFF7E5FB0A2090
:105A9000FFF7F3FBA220FFF7F0FBF620FFF7DCFB9C
:105AA00000F07DF800F07EF8F220FFF7D5FB00F063
:105AB0007FF82620FFF7D0FB00F071F8E020FFF719
:105AC000CBFBD020FFF7D9FB00F072F80220FFF7E4
:105AD000D4FB00F061F80B20FFF7CFFB1A20FFF793
